:0200000400807A
:105F8800FFFF000000400E8438FC745F3B44161489
:085F98000B0000710200000083
:045FBC0000000010D1
:020000040100F9
:10000000FEFFFFFF01015048434D00000000740057
:100010000000000100020001000200010050030086
:1000200000000000000000000000000000000000D0
:1000300000000000000000000000000000000000C0
:1000400000000000000000000000000000000000B0
:1000500000000000000000000000000000000000A0
:100060000000000000000000000000000000000090
:100070000000000000000000000000000000000080
:100080000000000000000000000000000000000070
:100090000000000000000000000000000000000060
:1000A0000000000000000000000000000000000050
:1000B0000000000000000000000000000000000040
:1000C0000000000000000000000000000000000030
:1000D0000000000000000000000000000000000020
:1000E0000000000000000000000000000000000010
:1000F0000000000000000000000000000000000000
:1001000000000000000000000000000000000000EF
:1001100000000000000000000000000000000000DF
:1001200000000000000000000000000000000000CF
:1001300000000000000000000000000000000000BF
:1001400000000000000000000000000000000000AF
:10015000000000000000000000000000000000009F
:10016000000000000000000000000000000000008F
:10017000000000000000000000000000000000007F
:10018000000000000000000000000000000000006F
:10019000000000000000000000000000000000005F
:1001A000000000000000000000000000000000004F
:1001B000000000000000000000000000000000003F
:1001C000000000000000000000000000000000002F
:1001D000000000000000000000000000000000001F
:1001E000000000000000000000000000000000000F
:1001F00000000000000000000000000000000000FF
:10020000F07F012081AF0201A3160301A9160301AB
:10021000B5160301BB160301C1160301000000005F
:10022000000000000000000000000000B9150101FE
:10023000AF16030100000000F1160101571701017C
:1002400087B30001657D010187B300010937010112
:1002500087B3000187B3000187B3000187B30001B2
:1002600087B3000187B3000187B3000187B30001A2
:10027000A5A8000121F0000187B3000187B30001A8
:1002800087B3000187B3000187B3000187B3000182
:1002900087B3000187B3000187B3000187B3000172
:1002A00087B3000187B3000187B3000187B3000162
:1002B00087B3000187B3000187B30001598A0201A7
:1002C000CD1F020187B3000187B3000187B300018E
:1002D00087B3000187B3000187B3000187B3000132
:1002E00087B30001000000008D9102010020320060
:1002F000BCAF002000000000000000000120320020
:10030000BCAF00200000000000000000022032000E
:10031000BCAF0020000000000000000003203200FD
:10032000BCAF0020000000000000000004203200EC
:10033000BCAF0020000000000000000005203200DB
:10034000BCAF0020000000000000000006203200CA
:10035000BCAF0020000000000000000007203200B9
:10036000BCAF0020000000000000000008202000BA
:10037000F0AF002000000000000000000920200075
:10038000F0AF002000000000000000000A20200064
:10039000F0AF002000000000000000000B20200053
:1003A000F0AF002000000000000000000C20200042
:1003B000F0AF002000000000000000000D20200031
:1003C000F0AF002000000000000000000E20200020
:1003D000F0AF002000000000000000000F2020000F
:1003E000F0AF00200000000000000000F8B500BFE2
:1003F000F8BC08BC9E46704715CE0201F8B500BF98
:10040000F8BC08BC9E467047F1CD0201AC47010024
:100410000100000080B588B002AFF860B9607A6072
:100420007B807A887B8800937B68B968F8680BF0DA
:1004300002FB0346FB75FB7D83F00103DBB25BB27D
:1004400018461837BD4680BD80B584B000AF7860CF
:100450000223FB8100237B73094B00221A70084B97
:1004600000225A70FB89074A05497868FFF7D2FFD6
:1004700003467B7397F90D3018461037BD4680BD93
:10048000000000206000002080B586B000AFF8605A
:100490000B467A607B810323FB8200237B757B897B
:1004A0001B0A9BB2DBB203F00F03DBB23033DAB2CC
:1004B0000D4B1A707B89DAB20B4B5A700A4B002233
:1004C0009A70FB8A094A0849F868FFF7A3FF0346B8
:1004D0007B75064B9A787B681A7097F91530184629
:1004E0001837BD4680BD00BF00000020600000201E
:1004F00080B584B000AF78600B467B8013467B707C
:100500000323FB8100237B737B881B0A9BB2DBB236
:1005100003F00F03DBB22033DAB20B4B1A707B8887
:10052000DAB2094B5A70084A7B789370FB89074A04
:1005300005497868FFF76EFF03467B7397F90D3026
:1005400018461037BD4680BD000000206000002026
:1005500080B588B000AFF8600B467A607B810623D7
:10056000BB830023FB767B891B0A9BB2DBB203F0C3
:100570000F03DBB23033DAB21A4B1A707B89DAB26E
:10058000184B5A70BB8B184A1649F868FFF742FFA0
:100590000346FB7697F91B30002B02D097F91B30EE
:1005A0001CE07B6800221A600223FB7711E0FB7FCE
:1005B0000D4AD35C7B617B681A68FB7F023BDB00E2
:1005C000796901FA03F31A447B681A60FB7F0133EF
:1005D000FB77FB7F052BEAD997F91B3018462037AC
:1005E000BD4680BD000000206000002080B586B0C0
:1005F00000AFF8600B467A607B810623BB82002344
:10060000FB747B891B0A9BB2DBB203F00F03DBB2E6
:100610002033DAB2124B1A707B89DAB2104B5A705F
:100620000023FB750BE0FB7DDB007A68DA40FB7D85
:100630000233D1B20A4AD154FB7D0133FB75FB7DF5
:10064000032BF0D9BB8A074A0549F868FFF7E2FE99
:100650000346FB7497F9133018461837BD4680BD22
:10066000000000206000002080B588B000AFF86076
:100670000B467A607B810423BB830023FB767B8956
:100680001B0A9BB2DBB203F00F03DBB23033DAB2EA
:100690001B4B1A707B89DAB2194B5A70BB8B194A03
:1006A0001749F868FFF7B6FE0346FB7697F91B304B
:1006B000002B02D097F91B301EE07B6800221A80C5
:1006C0000223FB7713E0FB7F0E4AD35C7B617B68E0
:1006D0001A88FB7F023BDB00796901FA03F39BB2C6
:1006E00013449AB27B681A80FB7F0133FB77FB7F50
:1006F000032BE8D997F91B3018462037BD4680BD3B
:10070000000000206000002080B584B000AF786059
:100710000B467B8013463B800423BB810023FB7286
:100720007B881B0A9BB2DBB203F00F03DBB22033E2
:10073000DAB2134B1A707B88DAB2114B5A7000236D
:10074000FB730BE03A88FB7BDB001A41FB7B023337
:10075000D1B20B4AD154FB7B0133FB73FB7B012BE2
:10076000F0D9BB89074A06497868FFF753FE03466C
:10077000FB7297F90B3018461037BD4680BD00BF9D
:10078000000000206000002080B584B000AF7860D9
:100790000B467B8013467B700023FB810523BB81C6
:1007A0000023FB727B881B0A9BB2DBB203F00F03B2
:1007B000DBB2403BDAB2134B1A707B88DAB2114BD2
:1007C0005A70104A7B78937003210E4804F0E0F8C9
:1007D0000346FB81FB891B0A9BB2DAB2094BDA7034
:1007E000FB89DAB2074B1A71BB89074A0549786859
:1007F000FFF710FE0346FB7297F90B3018461037CF
:10080000BD4680BD000000206000002080B586B09D
:1008100000AFF8600B467A607B810023BB8208231F
:100820007B8200237B747B891B0A9BB2DBB203F0C3
:100830000F03DBB2403BDAB21A4B1A707B89DAB293
:10084000184B5A700023FB750BE0FB7DDB007A68C8
:10085000DA40FB7D0233D1B2124AD154FB7D013321
:10086000FB75FB7D032BF0D906210E4804F090F8B0
:100870000346BB82BB8A1B0A9BB2DAB2094B9A7150
:10088000BB8ADAB2074BDA717B8A074A0549F868F6
:10089000FFF7C0FD03467B7497F9113018461837EF
:1008A000BD4680BD000000206000002080B586B0FD
:1008B00000AFF8607A601A460B467B8113463B8195
:1008C0003B890233BB820023FB747B891B0A9BB2EA
:1008D000DBB203F00F03DBB23033DAB2194B1A701C
:1008E0007B89DAB2174B5A700223FB8206E0FB8A3F
:1008F000144A0021D154FB8A0133FB82FA8ABB8A55
:100900009A42F4D3BB8A104A0E49F868FFF782FD79
:100910000346FB740023FB820AE0FB8A9A1CFB8AD5
:1009200079680B4408498A5C1A70FB8A0133FB82A0
:10093000FA8A3B899A42F0D397F913301846183750
:10094000BD4680BD000000206000002080B588B05A
:1009500000AFF8607A601A460B467B8113463B81F4
:100960000023BB8300237B833B8905333B83002328
:10097000FB757B891B0A9BB2DBB203F00F03DBB272
:10098000503BDAB23C4B1A707B89DAB23A4B5A7060
:1009900097F82830002B06D03B899B089BB2DAB22F
:1009A000354B9A7003E03B89DAB2334B9A700323DC
:1009B000FB7706E0FB7F304A0021D154FB7F0133F7
:1009C000FB77FB7F9BB23A8B9A42F3D83B8B2B4A47
:1009D0002949F868FFF71EFD0346FB7597F91730A4
:1009E000002B02D097F9173042E03B8B023B234AA1
:1009F000D35C9BB21B029AB23B8B013B1F49CB5C81
:100A00009BB21344BB831C4B1A781C4B1A701A4BB5
:100A10005A781A4B5A70184B9A78184B9A703B892F
:100A200003339BB21946154803F0B2FF03467B839C
:100A3000BA8B7B8B9A4203D1FB6A01221A7002E0C7
:100A4000FB6A00221A700023FB770AE0FB7FDA1CA6
:100A5000FB7F79680B4409498A5C1A70FB7F01337C
:100A6000FB77FB7F9BB23A899A42EFD897F9173010
:100A700018462037BD4680BD0000002060000020E1
:100A800080B586B000AFF8607A601A460B467B816D
:100A900013463B813B890233BB820023FB747B8975
:100AA0001B0A9BB2DBB203F00F03DBB22033DAB2D6
:100AB000124B1A707B89DAB2104B5A700223FB82F8
:100AC0000AE0FB8A023B7A681A44FB8A11780B4AD7
:100AD000D154FB8A0133FB82FA8ABB8A9A42F0D353
:100AE000BB8A074A0549F868FFF794FC0346FB7484
:100AF00097F9133018461837BD4680BD0000002016
:100B00006000002080B586B000AFF8607A601A46B9
:100B10000B467B8113463B810023BB823B89053317
:100B20007B8200237B747B891B0A9BB2DBB203F0C0
:100B30000F03DBB2603BDAB2254B1A707B89DAB265
:100B4000234B5A7097F82030002B06D03B899B0826
:100B50009BB2DAB21E4B9A7003E03B89DAB21C4BAF
:100B60009A700023FB820AE0FB8A7A681A44FB8AA7
:100B700003331178164AD154FB8A0133FB82FA8A77
:100B80003B899A42F0D37B8A023B9BB219461048BC
:100B900003F0FEFE0346BB82BB8A1B0A9AB27B8A25
:100BA000023BD1B20A4AD1547B8A013BBA8AD1B204
:100BB000074AD1547B8A074A0549F868FFF72AFC9F
:100BC00003467B7497F9113018461837BD4680BD2F
:100BD000000000206000002080B588B000AFF86001
:100BE0007A601A460B467B8113463B813B899B000A
:100BF0009BB202333B830023FB757B891B0A9BB2AC
:100C0000DBB203F00F03DBB23033DAB2284B1A70D9
:100C10007B89DAB2264B5A700223FB8306E0FB8BFA
:100C2000234A0021D154FB8B0133FB83FA8B3B8B8E
:100C30009A42F4D33B8B1F4A1D49F868FFF7EAFB41
:100C40000346FB7597F91730002B02D097F9173040
:100C50002AE002237B830023FB831FE000233B6108
:100C60000023BB830EE07A8BBB8B12498A5C07F1B1
:100C700020010B4403F8102CBB8B0133BB837B8B0F
:100C800001337B83BB8B032BEDD9FB8B9B007A68F5
:100C900013443A691A60FB8B0133FB83FA8B3B895F
:100CA0009A42DBD397F9173018462037BD4680BDEE
:100CB000000000206000002080B588B000AFF86020
:100CC0007A601A460B467B8113463B813B899B0029
:100CD0009BB202333B830023FB757B891B0A9BB2CB
:100CE000DBB203F00F03DBB22033DAB21D4B1A7014
:100CF0007B89DAB21B4B5A7002237B830023FB8370
:100D00001DE0FB8B9B007A6813441B683B6100234A
:100D1000BB830EE0BA8B7B8B07F120010A4412F8EB
:100D2000101C104AD154BB8B0133BB837B8B013326
:100D30007B83BB8B032BEDD9FB8B0133FB83FA8BBE
:100D40003B899A42DDD33B8B074A0649F868FFF797
:100D500061FB0346FB7597F9173018462037BD46EF
:100D600080BD00BF000000206000002080B584B07E
:100D700000AF786039600023FB73414BBB603B6878
:100D80001B78C3F30403DAB23B7A62F304033B72C9
:100D90003B681B78C3F34013DAB23B7A62F3451326
:100DA0003B723B681B78C3F38013DAB23B7A62F381
:100DB00086133B723B681B78C3F3C013DAB27B7AAD
:100DC00062F300037B723B685B78C3F30103DAB222
:100DD0007B7A62F342037B723B685B78C3F38003E8
:100DE000DAB27B7A62F304137B723B685B78C3F3FD
:100DF000C003DAB2BB7A62F30003BB723B685B7874
:100E0000C3F30013DAB2BB7A62F34103BB723B68EF
:100E10005B78C3F34013DAB2BB7A62F38203BB722E
:100E20003B685B78C3F38013DAB2BB7A62F3C30327
:100E3000BB723B685B78C3F3C013DAB2BB7A62F370
:100E40000413BB723B689B78C3F30303DAB2FB7AEB
:100E500062F30713FB72BB681A4600217868FFF73C
:100E6000C5FB0346FB7397F90F30002B02D04FF000
:100E7000FF3301E097F90F3018461037BD4680BDAB
:100E80006007980480B485B000AF78603A4BFB608F
:100E90003B7BC3F30403D9B27A68137861F304038C
:100EA00013703B7BC3F34013D9B27A68137861F3B4
:100EB000451313703B7BC3F38013D9B27A68137860
:100EC00061F3861313707B7BC3F30003D9B27A6896
:100ED000137861F3C71313707B7BC3F34103D9B25B
:100EE0007A68537861F3010353707B7BC3F300137B
:100EF000D9B27A68537861F382035370BB7BC3F332
:100F00000003D9B27A68537861F3C3035370BB7B93
:100F1000C3F34003D9B27A68537861F30413537072
:100F2000BB7BC3F38003D9B27A68537861F345136E
:100F30005370BB7BC3F3C003D9B27A68537861F3B3
:100F400086135370BB7BC3F30013D9B27A6853780E
:100F500061F3C7135370FB7BC3F30313D9B27A68F1
:100F6000937861F303039370002318461437BD464A
:100F70005DF8047B704700BF6007980480B584B0BB
:100F800000AF78600B46FB700023BB730023FB733C
:100F900007F10E031A4603217868FFF775FA034636
:100FA000FB7397F90F30002B02D04FF0FF331AE09C
:100FB000BB7B23F00703DBB2BB73BA7BFB78134325
:100FC000DBB2BB73BB7B1A4603217868FFF790FA4C
:100FD0000346FB7397F90F30002B02D06FF001032B
:100FE00001E097F90F3018461037BD4680BD80B537
:100FF00084B000AF786000237B73FF23FB73002372
:10100000BB7307F10D031A4602217868FFF73CFA1B
:101010000346BB7397F90E30002B01D0FF2335E058
:101020007B7B5B09DBB27B737B7B072B2AD801A21E
:1010300052F823F0551000015B100001611000010F
:101040006D1000017310000167100001791000019C
:101050007F1000010023FB7317E00123FB7314E0F2
:101060000223FB7311E00523FB730EE00323FB73E4
:101070000BE00423FB7308E00623FB7305E0072362
:10108000FB7302E0FF23FB7300BFFB7B18461037A6
:10109000BD4680BD80B584B000AF78600023FB738F
:1010A0000023BB7307F10E031A464FF460617868A2
:1010B000FFF7EAF90346FB7397F90F30002B02D0D4
:1010C0004FF0FF3316E0BB7B43F00803DBB2BB738A
:1010D000BB7B1A464FF460617868FFF709FA034654
:1010E000FB7397F90F30002B02D06FF0010301E082
:1010F00097F90F3018461037BD4680BD80B584B0D3
:1011000000AF78600023FB730023BB7307F10E036D
:101110001A464FF460617868FFF7B6F90346FB732F
:1011200097F90F30002B02D04FF0FF3316E0BB7B56
:1011300023F00803DBB2BB73BB7B1A464FF460613C
:101140007868FFF7D5F90346FB7397F90F30002B4A
:1011500002D06FF0010301E097F90F301846103705
:10116000BD4680BD80B586B000AFF8600B467A60A2
:10117000FB720023FB750023BB82254B3B613B7C4C
:1011800043F080033B747B685B78C3F30403DAB2FB
:10119000FB7C62F30403FB747B685B78C3F342134C
:1011A000DAB2FB7C62F34713FB747B681B78C3F3F2
:1011B0008113DAB2BB7C62F34613BB747B681B7885
:1011C000C3F34403DAB2BB7C62F30403BB747B68F1
:1011D0001B78C3F30003DAB23B7C62F386133B74E3
:1011E000FB7A9BB21A46520013449B009BB25033C9
:1011F000BB823A69BB8A1946F868FFF7F7F90346DC
:10120000FB7597F9173018461837BD4680BD00BFEB
:101210000004600080B485B000AF78601A4BFB60BA
:101220003B7BC3F38013D9B27A68137861F3000370
:101230001370BB7BC3F30403D9B27A68137861F3EC
:1012400045031370BB7BC3F34113D9B27A6813789B
:1012500061F387131370FB7BC3F30403D9B27A687D
:10126000537861F304035370FB7BC3F34213D9B289
:101270007A68537861F34713537000231846143784
:10128000BD465DF8047B70470004600080B584B003
:1012900000AF786039600023FB730023BB811D4BD6
:1012A000BB603B7A43F080033B723B681B88C3F30F
:1012B000C413DAB2FB7A62F30403FB723B685B7817
:1012C000C3F30213DAB2FB7A62F34713FB723B6893
:1012D0001B78C3F34113DAB2BB7A62F34613BB72D5
:1012E0003B681B78C3F30403DAB2BB7A62F30403EE
:1012F000BB725023BB81BA68BB8919467868FFF777
:1013000075F90346FB7397F90F3018461037BD4641
:1013100080BD00BF0004600080B485B000AF78607D
:10132000164BFB60BB7BC3F30403D9B27A68137816
:1013300061F304031370BB7BC3F34113D9B27A6822
:10134000137861F346131370FB7BC3F30403D9B224
:101350007A68138861F3CB131380FB7BC3F34213CA
:10136000D9B27A68537861F3061353700023184694
:101370001437BD465DF8047B704700BF0004600071
:1013800080B5A0B000AFF8607A603B600B46FB729E
:10139000002387F87A30FB7A9BB21A465200134436
:1013A0009B009BB25033A7F8783007F16802B7F87A
:1013B00078100323F868FFF70FFC034687F87A30AC
:1013C00097F97A30002B02D04FF0FF33C7E0BB6EA5
:1013D0007B6697F8643023F07F03DBB2002B02D1E9
:1013E0006FF00103BBE07B681B79C3F30303DBB23F
:1013F000184603F057FA78677A6FD7F888309A4220
:1014000002D26FF00203AAE0FB6E3B663B6FFB6506
:10141000B7F85C30C3F30B039BB2A7F87830B7F88A
:10142000783003F58063A7F878307B681B783B74CD
:101430007B685B787B747B689B78BB747B68DB78AC
:10144000FB747B681B793B757B685B797B757B687C
:101450009B79BB757B68DB79FB75002387F87F3050
:1014600011E097F87F303A681A4497F87F300833D4
:10147000127807F180010B4403F8702C97F87F3045
:10148000013387F87F3097F87F30D7F888209A4269
:10149000E7D80023A7F87C30002387F87B30D7F803
:1014A000883003F00303002B2CD0D7F888309BB290
:1014B00003F003039BB2C3F10403A7F87C30D7F811
:1014C0008830DBB2083387F87F30002387F87B3021
:1014D00011E097F87F3003F1080297F87B3013444E
:1014E00007F180021344002203F8702C97F87B3038
:1014F000013387F87B3097F87B309BB2B7F87C20BC
:101500009A42E6D8D7F888309AB2B7F87C301344BC
:101510009BB208339BB207F11002B7F87810F86855
:10152000FFF7AEFA034687F87A3097F97A30002B46
:1015300002D06FF0030312E097F88C20FB7A194673
:10154000F86800F08EF8034687F87A3097F97A3019
:10155000002B02D06FF0040301E097F97A301846AF
:101560008037BD4680BD80B584B000AF78600B4643
:10157000FB700023FB730023BB810023FB72FB780D
:101580009BB21A46520013449B009BB25033BB815E
:10159000BB890133BB810223FB73FA7BBB891946EC
:1015A0007868FEF7A5FF0346FB7297F90B301846E3
:1015B0001037BD4680BD80B58AB000AFF8600B46DD
:1015C0007A60FB7200237B8400237B62002387F810
:1015D0002130FB7A9BB21A46520013449B009BB207
:1015E00050337B8407F11802798C0223F868FFF7E7
:1015F000F3FA034687F8213097F92130002B02D007
:101600004FF0FF3319E0BB693B61FB697B613B7DB8
:101610007B627B7C03F00203DBB2002B03D07B6A8E
:1016200043F480737B627B6A9AB240F2F7131340F3
:101630009AB27B681A8097F9213018462837BD4640
:1016400080BD80B582B000AF78600B46FB70FB7840
:101650001946786800F0BAFB034618460837BD46BD
:1016600080BD80B584B000AF78600B46FB70134638
:10167000BB700023FB73FB789BB21A4652001344E5
:101680009B009BB25133BB810023BB607B7A43F04C
:1016900001037B72BB78002B03D07B7A43F00203FB
:1016A0007B727A7ABB8919467868FEF721FF034678
:1016B000FB7397F90F30002B02D04FF0FF3301E09E
:1016C00097F90F3018461037BD4680BD80B584B0FD
:1016D00000AF786039600023FB733B68BB60BA6879
:1016E00030217868FEF782FF0346FB7397F90F30CD
:1016F00018461037BD4680BD80B584B000AF786015
:1017000039600023FB733A6830217868FEF720FFC8
:101710000346FB7397F90F3018461037BD4680BD5E
:1017200080B584B000AF78600B46FB700023FB737C
:10173000FB789BB21A46520013449B009BB2503375
:10174000BB81BB890133BB810023FB72FA7ABB8961
:1017500019467868FEF7CCFE0346FB7397F90F3005
:1017600018461037BD4680BD80B584B000AF7860A4
:101770000023FB7307F10E031A4603217868FEF776
:1017800083FE0346FB7397F90F30002B02D04FF016
:10179000FF3315E0BB7B43F00803DBB2BB73BB7BBD
:1017A0001A4603217868FEF7A3FE0346FB7397F9F8
:1017B0000F30002B02D06FF0010301E097F90F30DA
:1017C00018461037BD4680BD80B584B000AF786044
:1017D0000B46FB700023BB730023FB7307F10E0362
:1017E0001A4603217868FEF74FFE0346FB7397F90C
:1017F0000F30002B02D04FF0FF331EE0BB7B03F015
:101800000F03DBB2BB73FB781B015AB2BB7B5BB22D
:1018100013435BB2DBB2BB73BB7B1A460321786810
:10182000FEF766FE0346FB7397F90F30002B02D0DC
:101830006FF0010301E097F90F3018461037BD46ED
:1018400080BD80B586B000AFF8600B467A60FB7251
:101850000023FB7500233B617B681B683B61FB7ABF
:101860003E339BB2DB00BB823A69BB8A1946F868FB
:10187000FEF7BCFE0346FB7597F91730184618377C
:10188000BD4680BD80B586B000AFF8600B467A607B
:10189000FB720023FB7500233B617B681B683B6187
:1018A000FB7A9BB2DB009BB203F5FA73BB823A6909
:1018B000BB8A1946F868FEF799FE0346FB7597F94F
:1018C000173018461837BD4680BD80B584B000AFCC
:1018D0007860084611461A460346FB700B46BB70FB
:1018E00013467B700023FB737B78002B04D03B7A7C
:1018F00043F080033B7203E03B7A6FF3C7133B7204
:10190000BB7803F01F03DAB23B7A62F304033B7245
:10191000FB789BB203F5E873BB813A7ABB89194621
:101920007868FEF7E5FD0346FB7397F90F3018461C
:101930001037BD4680BD80B584B000AF78600B46DF
:10194000FB700023FB73FB789BB203F5E873BB814C
:1019500007F10802BB8919467868FEF795FD034632
:10196000FB7397F90F30002B02D04FF0FF3314E0D8
:101970003B7A43F080033B723A7ABB891946786818
:10198000FEF7B6FD0346FB7397F90F30002B02D02C
:101990006FF0010301E097F90F3018461037BD468C
:1019A00080BD80B584B000AF78600B46FB7000232B
:1019B000FB73FB789BB203F5E873BB8107F1080268
:1019C000BB8919467868FEF75FFD0346FB7397F9FC
:1019D0000F30002B02D04FF0FF3314E03B7A6FF34F
:1019E000C7133B723A7ABB8919467868FEF780FDC7
:1019F0000346FB7397F90F30002B02D06FF0010301
:101A000001E097F90F3018461037BD4680BD80B50C
:101A100084B000AF78600B46FB700023BB730023DB
:101A2000FB7307F10E031A4600217868FEF72CFDC0
:101A30000346FB7397F90F30002B02D04FF0FF33B2
:101A40001AE0BB7B03F01F03DBB2BB73BA7BFB78EE
:101A50001343DBB2BB73BB7B1A4600217868FEF7E9
:101A600047FD0346FB7397F90F30002B02D06FF050
:101A7000010301E097F90F3018461037BD4680BDCD
:101A800080B586B000AFF8600B467A60FB72002329
:101A9000FB750023BB82FB7A002B02D16FF063033E
:101AA00033E01C4B3B613B7C6FF3C7133B747B689B
:101AB0001B78C3F34403DAB2FB7C62F30403FB74C8
:101AC0007B681B88C3F38213DAB2FB7C62F3471393
:101AD000FB747B681B78C3F30003DAB23B7C62F3D0
:101AE00045133B74FB7A9BB21A46520013449B0089
:101AF0009BB25033BB823A69BB8A1946F868FEF73D
:101B000075FD0346FB7597F9173018461837BD4623
:101B100080BD00BF0004600080B485B000AF786075
:101B2000114BFB60FB7BC3F30403D9B27A681378D3
:101B300061F345031370FB7BC3F34213D9B27A6898
:101B4000138861F3881313803B7BC3F34013D9B22E
:101B50007A68137861F30003137000231846143772
:101B6000BD465DF8047B70470004600080B586B018
:101B700000AFF8600B467A60FB720023FB75002310
:101B80003B61FB7A9BB21A46520013449B009BB206
:101B90005433BB8207F11002BB8A1946F868FEF77E
:101BA00073FC0346FB7597F91730002B02D04FF0FA
:101BB000FF3307E03B7C03F00F03DAB27B681A7057
:101BC00097F9173018461837BD4680BD80B5A0B0CC
:101BD00000AFF8607A603B600B46FB72002387F829
:101BE0007F30002387F87E30002387F87D30FB7A32
:101BF0009BB21A46520013449B009BB25033A7F885
:101C00007A3007F16C02B7F87A100323F868FEF710
:101C1000E3FF034687F87D3097F97D30002B02D033
:101C20004FF0FF33CEE0FB6EBB6697F8683023F0D1
:101C30007F03DBB2002B02D06FF00103C2E03B6FE9
:101C40007B667B6F3B66B7F86030C3F30B039BB2D8
:101C5000A7F87A30B7F87A3003F58063A7F87A30BE
:101C600097F88830083387F87F3097F8683003F0AA
:101C70002003DBB2002B04D097F87F30043387F8C1
:101C80007F3097F87F3003F00303DBB2002B07D0DF
:101C900097F87F3023F00303DBB2043387F87F30FB
:101CA00097F87F304C2B02D94C2387F87F3097F878
:101CB0007F309BB207F11402B7F87A10F868FEF78C
:101CC000F5FD034687F87D3097F97D30002B02D073
:101CD0006FF0020376E03B7D3B747B7D7B74BB7DC4
:101CE000BB74FB7DFB743A697B681A603B7E3B7476
:101CF0007B7E7B74BB7EBB74FB7EFB743A697B6826
:101D00005A6097F8683003F02003DBB2002B28D02C
:101D10003B7F3B747B7F7B74BB7FBB74FB7FFB741F
:101D20003A697B689A60002387F87E3012E097F862
:101D30007E3003F10C0297F87E3039680B4407F1CE
:101D400080010A4412F86C2C1A7097F87E30013327
:101D500087F87E3097F87E2097F888309A42E6D34D
:101D60001FE07B6800229A60002387F87E3012E033
:101D700097F87E3003F1080297F87E3039680B44FB
:101D800007F180010A4412F86C2C1A7097F87E3023
:101D9000013387F87E3097F87E2097F888309A4292
:101DA000E6D3FB7A1946F86800F037F8034687F85F
:101DB0007D3097F97D30002B02D06FF0030301E0F6
:101DC00097F97D3018468037BD4680BD80B584B018
:101DD00000AF78600B46FB700023FB8100237B7310
:101DE000FB789BB21A46520013449B009BB25133BE
:101DF000FB810023BB607B7A43F004037B727A7A19
:101E0000FB8919467868FEF773FB03467B7397F9E5
:101E10000D3018461037BD4680BD80B584B000AF88
:101E200078600B46FB700023FB8100237B7300234B
:101E3000BB60FB789BB21A46520013449B009BB2D6
:101E40005133FB817B7A43F001037B727A7AFB8901
:101E500019467868FEF74CFB03467B7397F90D3003
:101E600018461037BD4680BD80B584B000AF78609D
:101E700039600023FB730023BB810023BB60442334
:101E8000BB8107F10802BB8919467868FEF7FCFAA6
:101E90000346FB7397F90F30002B02D04FF0FF334E
:101EA00007E03B7A03F00F03DAB23B681A7097F948
:101EB0000F3018461037BD4680BD80B58EB000AFDC
:101EC00078603960002387F836300023BB86002312
:101ED00087F837304023BB8607F12802B98E0323E9
:101EE0007868FEF779FE034687F8363097F9363082
:101EF000002B02D04FF0FF336BE0BB6A7B62FB6AC2
:101F00003B623B6BFB61BB8BC3F30B039BB2BB869A
:101F1000BB8E03F58063BB86082387F8373097F8BC
:101F2000243003F02003DBB2002B04D097F83730C5
:101F3000043387F8373097F837309BB207F1100237
:101F4000B98E7868FEF7B2FC034687F8363097F909
:101F50003630002B02D06FF001033AE03B7C3B733C
:101F60007B7C7B73BB7CBB73FB7CFB73FA683B683D
:101F70001A603B7D3B737B7D7B73BB7DBB73FB7DBD
:101F8000FB73FA683B685A6097F8243003F020032B
:101F9000DBB2002B0BD03B7E3B737B7E7B73BB7E27
:101FA000BB73FB7EFB73FA683B689A6002E03B6898
:101FB00000229A60786800F02EF8034687F83630E1
:101FC00097F93630002B02D06FF0020301E097F949
:101FD000363018463837BD4680BD80B584B000AF76
:101FE00078600023FB730023BB814123BB81002366
:101FF000BB607B7A43F004037B727A7ABB89194613
:102000007868FEF775FA0346FB7397F90F301846A8
:102010001037BD4680BD80B584B000AF7860002326
:10202000FB730023BB814123BB810023BB607B7A10
:1020300043F001037B727A7ABB8919467868FEF710
:1020400057FA0346FB7397F90F3018461037BD4611
:1020500080BD80B584B000AF786039600023FB7329
:10206000104BBB603B681B78C3F34403DAB2FB7AC6
:1020700062F30403FB723B681B78C3F30003DAB21C
:102080003B7A62F345133B72BB681A46402178687D
:10209000FEF7ACFA0346FB7397F90F30184610377A
:1020A000BD4680BD0004600080B485B000AF78609C
:1020B0000D4BFB60FB7BC3F30403D9B27A68137842
:1020C00061F3450313703B7BC3F34013D9B27A68C5
:1020D000137861F300031370002318461437BD46CC
:1020E0005DF8047B704700BF0004600080B584B0D9
:1020F00000AF786039600023FB7300233B8107F158
:1021000008031A461C217868FEF7AEFA0346FB73F3
:1021100097F90F30002B02D04FF0FF3307E03B89D7
:1021200023F0E0039AB23B681A8097F90F30184603
:102130001037BD4680BD80B584B000AF78600B46D7
:102140007B800023FB730023BB811E23BB81002304
:102150003B8107F10802BB8919467868FEF784FACB
:102160000346FB7397F90F30002B02D04FF0FF337B
:102170001BE03B891AB2B7F9023023F0E0031BB22F
:1021800013431BB29BB23B813A89BB8919467868DD
:10219000FEF7BAFA0346FB7397F90F30002B02D013
:1021A0006FF0010301E097F90F3018461037BD4674
:1021B00080BD80B584B000AF78600B467B80002383
:1021C000FB730023BB811E23BB8100233B8107F1EE
:1021D0000802BB8919467868FEF746FA0346FB7386
:1021E00097F90F30002B02D04FF0FF331DE03B89F1
:1021F0001AB27B8823F0E0039BB2DB439BB21BB295
:1022000013401BB29BB23B813A89BB89194678685F
:10221000FEF77AFA0346FB7397F90F30002B02D0D2
:102220006FF0010301E097F90F3018461037BD46F3
:1022300080BD80B584B000AF78600B467B80002302
:10224000FB730023BB811C23BB8100233B814FF622
:102250001F733B813B891AB2B7F90230DB431BB2D3
:1022600013401BB29BB23B813A89BB8919467868FF
:10227000FEF74AFA0346FB7397F90F30002B02D0A2
:102280006FF0010301E097F90F3018461037BD4693
:1022900080BD80B584B000AF786039600023FB73E7
:1022A0000023BB810023FB721B23BB8107F10B02C0
:1022B000BB8919467868FEF7E7F80346FB7397F980
:1022C0000F30002B02D04FF0FF330EE0FB7A1F2BB4
:1022D00002D9FB7A402B03D1FA7A3B681A7002E0EC
:1022E0003B6841221A7097F90F3018461037BD46E7
:1022F00080BD80B584B000AF786039600023FB7387
:102300000023BB810023FB721A23BB8107F10B0260
:10231000BB8919467868FEF7B7F80346FB7397F94F
:102320000F30002B02D04FF0FF330EE0FB7A1F2B53
:1023300002D9FB7A402B03D1FA7A3B681A7002E08B
:102340003B6841221A7097F90F3018461037BD4686
:1023500080BD80B584B000AF786039600023FB7326
:102360000023BB810023FB721923BB8107F10B0201
:10237000BB8919467868FEF787F80346FB7397F91F
:102380000F30002B02D04FF0FF3304E0FA7A3B68A5
:102390001A7097F90F3018461037BD4680BD80B5CA
:1023A00084B000AF786039600023FB730023BB81E9
:1023B0000023FB721823BB8107F10B02BB8919466E
:1023C0007868FEF761F80346FB7397F90F30002B2E
:1023D00002D04FF0FF3311E0FB7A4A2B09D8FB7A89
:1023E0001F2B02D9FB7A3F2B03D9FA7A3B681A706C
:1023F00002E03B684B221A7097F90F3018461037ED
:10240000BD4680BD80B586B000AFF8600B467A60EF
:10241000FB720023FB750023BB8200233B61FB7A28
:102420009BB21A46520013449B009BB25433BB82AA
:1024300007F11002BB8A1946F868FEF725F8034633
:10244000FB7597F91730002B02D04FF0FF3307E0F0
:102450003B7C03F01703DAB27B681A7097F91730E8
:1024600018461837BD4680BD80B584B000AF78608F
:1024700039600023FB733A6824217868FEF768F816
:102480000346FB7397F90F3018461037BD4680BDE1
:1024900080B584B000AF786039600023FB733A6880
:1024A0002C217868FEF754F80346FB7397F90F3038
:1024B00018461037BD4680BD80B586B000AFF860C5
:1024C0000B467A60FB720023FB750023BB8200235E
:1024D0003B61FB7A9BB21A46520013449B009BB2AD
:1024E0005433BB8207F11002BB8A1946F868FEF725
:1024F0002FF80346FB7597F91730002B02D04FF0E9
:10250000FF3308E07B7CC3F30403DBB21A467B682D
:102510001A7097F9173018461837BD4680BD80B538
:1025200084B000AF78600B46FB701346BB7000238D
:10253000FB730023BB81FB789BB21A465200134405
:102540009B009BB25033BB810023BB6007F10802A4
:10255000BB8919467868FDF797FF0346FB7397F927
:102560000F30002B02D04FF0FF331BE03B7A5AB202
:1025700097F9023003F017035BB213435BB2DBB28F
:102580003B723A7ABB8919467868FDF7B1FF03467A
:10259000FB7397F90F30002B02D06FF0010301E0BD
:1025A00097F90F3018461037BD4680BD80B584B00E
:1025B00000AF78600B46FB701346BB700023FB73C3
:1025C0000023BB81FB789BB21A46520013449B0048
:1025D0009BB25033BB810023BB6007F10802BB896B
:1025E00019467868FDF750FF0346FB7397F90F30E3
:1025F000002B02D04FF0FF331DE03B7A5AB2BB787C
:1026000003F01703DBB2DB43DBB25BB213405BB218
:10261000DBB23B723A7ABB8919467868FDF768FFEE
:102620000346FB7397F90F30002B02D06FF00103C4
:1026300001E097F90F3018461037BD4680BD80B5D0
:1026400084B000AF78600B46FB700023FB7300235F
:10265000BB81FB789BB21A46520013449B009BB28D
:102660005433BB810023BB6007F10802BB891946C4
:102670007868FDF709FF0346FB7397F90F30002BCD
:1026800002D04FF0FF3315E03B7A23F01003DBB2AA
:102690003B723A7ABB8919467868FDF729FF0346F1
:1026A000FB7397F90F30002B02D06FF0010301E0AC
:1026B00097F90F3018461037BD4680BD80B586B0FB
:1026C00000AFF8600B467A60FB720023FB750023B5
:1026D000BB82FB7A002B02D16FF0630322E0002360
:1026E0003B61FB7A9BB21A46520013449B009BB29B
:1026F0005433BB8207F11002BB8A1946F868FDF714
:10270000C3FE0346FB7597F91730002B02D04FF03C
:10271000FF3307E03B7C03F00F03DAB27B681A70EB
:1027200097F9173018461837BD4680BD80B584B07C
:1027300000AF786039600023FB733A682021786825
:10274000FDF706FF0346FB7397F90F301846103765
:10275000BD4680BD80B584B000AF7860396000238D
:10276000FB733A6828217868FDF7F2FE0346FB7395
:1027700097F90F3018461037BD4680BD80B584B03C
:1027800000AFF8600B467A60FB72FB7A7A681946F4
:10279000F868FFF791FE034618461037BD4680BD26
:1027A00080B584B000AF78600B46FB701346BB70F9
:1027B0000023FB730023BB81FB78002B02D16FF059
:1027C000630336E0FB789BB21A46520013449B0029
:1027D0009BB25033BB810023BB6007F10802BB8969
:1027E00019467868FDF750FE0346FB7397F90F30E2
:1027F000002B02D04FF0FF331BE03B7A5AB297F91F
:10280000023003F00F035BB213435BB2DBB23B72E7
:102810003A7ABB8919467868FDF76AFE0346FB736E
:1028200097F90F30002B02D06FF0010301E097F908
:102830000F3018461037BD4680BD80B584B000AF5C
:1028400078600B46FB701346BB700023FB730023BC
:10285000BB81FB78002B02D16FF0630338E0FB787B
:102860009BB21A46520013449B009BB25033BB816B
:102870000023BB6007F10802BB8919467868FDF7A1
:1028800003FE0346FB7397F90F30002B02D04FF085
:10289000FF331DE03B7A5AB2BB7803F00F03DBB283
:1028A000DB43DBB25BB213405BB2DBB23B723A7A22
:1028B000BB8919467868FDF71BFE0346FB7397F941
:1028C0000F30002B02D06FF0010301E097F90F30B9
:1028D00018461037BD4680BD80B584B000AF786023
:1028E0000B46FB700023FB730023BB81FB78002B9E
:1028F00002D16FF0630330E00023BB60FB789BB232
:102900001A46520013449B009BB25433BB8107F11B
:102910000802BB8919467868FDF7B6FD0346FB73CC
:1029200097F90F30002B02D04FF0FF3315E03B7AC0
:1029300023F00803DBB23B723A7ABB891946786808
:10294000FDF7D6FD0346FB7397F90F30002B02D03D
:102950006FF0010301E097F90F3018461037BD46BC
:1029600080BD80B584B000AF786039600023FB7310
:102970000023BB810023BB604423BB8107F1080215
:10298000BB8919467868FDF77FFD0346FB7397F90D
:102990000F30002B02D04FF0FF3307E03B7A03F0FB
:1029A0000F03DAB23B681A7097F90F3018461037E8
:1029B000BD4680BD80B584B000AF78600B46FB702B
:1029C0000023FB730023BB814023BB810023BB603A
:1029D00007F10802BB8919467868FDF755FD0346E3
:1029E000FB7397F90F30002B02D04FF0FF331BE041
:1029F0003B7A5AB297F9033003F00F035BB21343EB
:102A00005BB2DBB23B723A7ABB8919467868FDF754
:102A10006FFD0346FB7397F90F30002B02D06FF068
:102A2000010301E097F90F3018461037BD4680BD0D
:102A300080B584B000AF78600B46FB700023FB7359
:102A40000023BB814023BB810023BB6007F1080248
:102A5000BB8919467868FDF717FD0346FB7397F9A4
:102A60000F30002B02D04FF0FF331DE03B7A5AB2FB
:102A7000FB7803F00F03DBB2DB43DBB25BB2134046
:102A80005BB2DBB23B723A7ABB8919467868FDF7D4
:102A90002FFD0346FB7397F90F30002B02D06FF028
:102AA000010301E097F90F3018461037BD4680BD8D
:102AB00080B584B000AF78600023FB730023BB8136
:102AC0000023BB604423BB8107F10802BB89194680
:102AD0007868FDF7D9FC0346FB7397F90F30002B9C
:102AE00002D04FF0FF3315E03B7A23F00803DBB24E
:102AF0003B723A7ABB8919467868FDF7F9FC0346C0
:102B0000FB7397F90F30002B02D06FF0010301E047
:102B100097F90F3018461037BD4680BD80B584B098
:102B200000AF786039600023FB730023BB8135233D
:102B3000BB81BB893A6819467868FDF7A5FC034656
:102B4000FB7397F90F3018461037BD4680BD80B52E
:102B500084B000AF786039600023FB730023BB8131
:102B60003423BB81BB893A6819467868FDF78CFC31
:102B70000346FB7397F90F3018461037BD4680BDEA
:102B800080B584B000AF786039600023FB73002308
:102B9000BB813623BB810023FB7207F10B02BB898B
:102BA00019467868FDF770FC0346FB7397F90F3000
:102BB000002B02D04FF0FF3307E0FB7A03F03F0316
:102BC000DAB23B681A7097F90F3018461037BD46D5
:102BD00080BD80B586B000AFF860B9607A603B60B8
:102BE0000023FB750023BB823423BB8200233B619F
:102BF00007F11002BB8A1946F868FDF7A9FC0346E5
:102C0000FB7597F91730002B02D04FF0FF330DE022
:102C10007A7CBB681A703A7C7B681A70BB7C03F0C4
:102C20003F03DAB23B681A7097F917301846183725
:102C3000BD4680BD90B589B000AF78603960002393
:102C4000FB770023BB833823BB8307F11402B98BC6
:102C500002237868FDF7C0FF0346FB7797F91F3022
:102C6000002B02D04FF0FF3311E07B69BB60BB69E2
:102C70009BB2FB60BB691B0C3B613B681C4607F1C8
:102C8000080393E8070084E8070097F91F30184607
:102C90002437BD4690BD80B586B000AF7860002374
:102CA000FB750023BB753823BB750023FB60002335
:102CB0003B61BB7D99B207F10C0202237868FDF7F6
:102CC000FBFF0346FB7597F9173018461837BD46CA
:102CD00080BD80B584B000AF78600023FB73002313
:102CE000BB7307F10E031A4640F60C617868FDF7D6
:102CF000CBFB0346FB7397F90F30002B02D04FF04C
:102D0000FF3315E0BB7B43F00103DBB2BB73BB7B3E
:102D10001A4640F60C617868FDF7EAFB0346FB7340
:102D200097F90F30002B02D06FF0010300E0002371
:102D300018461037BD4680BD80B584B000AF7860BE
:102D40000023FB730023BB7307F10E031A4640F602
:102D50000C617868FDF798FB0346FB7397F90F3019
:102D6000002B02D04FF0FF3315E0BB7B23F00103B3
:102D7000DBB2BB73BB7B1A4640F60C617868FDF78B
:102D8000B7FB0346FB7397F90F30002B02D06FF0AF
:102D9000010300E0002318461037BD4680BD80B512
:102DA00084B000AF786039600023FB730023BB81DF
:102DB0000023FB724FF46163BB8107F10B02BB89F7
:102DC00019467868FDF760FB0346FB7397F90F30EF
:102DD000002B02D04FF0FF3307E0FB7A03F006032D
:102DE000DAB23B681A7097F90F3018461037BD46B3
:102DF00080BD80B584B000AF78600B46FB700023C7
:102E0000FB73FB781A4640F60D617868FDF770FB9E
:102E10000346FB7397F90F3018461037BD4680BD47
:102E200080B584B000AF786039600023FB733A68E6
:102E300040F60D617868FDF727FB0346FB7397F9B1
:102E40000F3018461037BD4680BD80B584B000AF46
:102E5000786039600023FB7307F108031A464FF4CA
:102E600061617868FDF774FB0346FB7397F90F30D7
:102E7000002B02D04FF0FF3308E07B89C3F30B0334
:102E80009BB21A463B681A8097F90F3018461037E4
:102E9000BD4680BD80B584B000AF78600B46FB7046
:102EA0000023FB730023BB8140F60C63BB8100232E
:102EB000FB7207F10B02BB8919467868FDF7E4FA4B
:102EC0000346FB7397F90F30002B02D04FF0FF330E
:102ED0001BE097F9033003F006035AB2FB7A5BB2AA
:102EE00013435BB2DBB2FB72FA7ABB89194678688E
:102EF000FDF7FEFA0346FB7397F90F30002B02D063
:102F00006FF0010301E097F90F3018461037BD4606
:102F100080BD80B584B000AF78600B46FB700023A5
:102F2000FB730023BB8140F60C63BB810023FB7263
:102F300007F10B02BB8919467868FDF7A5FA03462D
:102F4000FB7397F90F30002B02D04FF0FF331DE0D9
:102F5000FB7803F00603DBB2DB43DBB25AB2FB7A49
:102F60005BB213405BB2DBB2FB72FA7ABB891946E3
:102F70007868FDF7BDFA0346FB7397F90F30002B15
:102F800002D06FF0010301E097F90F3018461037B7
:102F9000BD4680BD80B584B000AF78600B46FB7045
:102FA0000023FB730023BB814FF46163BB810023CB
:102FB000FB7207F10B02BB8919467868FDF764FACA
:102FC0000346FB7397F90F30002B02D04FF0FF330D
:102FD0001DE0FB7803F00603DBB2DB43DBB25AB241
:102FE000FB7A5BB213405BB2DBB2FB72FA7ABB894D
:102FF00019467868FDF77CFA0346FB7397F90F30A2
:10300000002B02D06FF0010301E097F90F30184652
:103010001037BD4680BD80B584B000AF78600B46E8
:10302000FB700023FB730023BB8140F60B63BB8165
:1030300007F10B02BB8919467868FDF725FA0346AC
:10304000FB7397F90F30002B02D04FF0FF331BE0DA
:1030500097F9033003F003035AB2FB7A5BB21343D0
:103060005BB2DBB2FB72FA7ABB8919467868FDF76E
:103070003FFA0346FB7397F90F30002B02D06FF035
:10308000010301E097F90F3018461037BD4680BDA7
:1030900080B584B000AF78600B46FB700023FB73F3
:1030A0000023BB8140F60B63BB8107F10B02BB8998
:1030B00019467868FDF7E8F90346FB7397F90F3076
:1030C000002B02D04FF0FF331DE0FB7803F0030329
:1030D000DBB2DB43DBB25AB2FB7A5BB213405BB2CA
:1030E000DBB2FB72FA7ABB8919467868FDF700FA01
:1030F0000346FB7397F90F30002B02D06FF00103EA
:1031000001E097F90F3018461037BD4680BD80B5F5
:1031100084B000AF78600B46FB700023FB73002384
:10312000BB8140F60A63BB8107F10B02BB891946DC
:103130007868FDF7A9F90346FB7397F90F30002B68
:1031400002D04FF0FF331DE0FB7803F00303DBB246
:10315000DB43DBB25AB2FB7A5BB213405BB2DBB249
:10316000FB72FA7ABB8919467868FDF7C1F9034604
:10317000FB7397F90F30002B02D06FF0010301E0D1
:1031800097F90F3018461037BD4680BD80B584B022
:1031900000AF786039600023FB730023BB8140F6E9
:1031A0000A63BB8107F10B02BB8919467868FDF7FA
:1031B0006BF90346FB7397F90F30002B02D04FF0E9
:1031C000FF3307E0FB7A03F00303DAB23B681A70BF
:1031D00097F90F3018461037BD4680BD80B584B0D2
:1031E00000AF786039600023FB733A6840F60861ED
:1031F0007868FDF739FA0346FB7397F90F301846E4
:103200001037BD4680BD80B59CB000AF78600B46DE
:10321000FB70002387F86B300023FB6608E007F1A2
:103220000802FB6E1344FA781A70FB6E0133FB66DA
:10323000FB6E5F2BF3D94FF48063A7F8683000234F
:10324000FB6619E007F10802B7F868106023786898
:10325000FDF716FC034687F86B3097F96B30002BAF
:1032600002D04FF0FF330CE0B7F868306033A7F8B6
:103270006830FB6E0133FB66FB6E142BE2D997F9C5
:103280006B3018467037BD4680BD80B584B000AF46
:1032900078600023FB730023BB7307F10E031A460B
:1032A00016217868FDF7F0F80346FB7397F90F30A5
:1032B000002B02D04FF0FF3315E0BB7B43F001033E
:1032C000DBB2BB73BB7B1A4616217868FDF710F999
:1032D0000346FB7397F90F30002B02D06FF0010308
:1032E00001E097F90F3018461037BD4680BD80B514
:1032F00084B000AF78600023FB730023BB7307F139
:103300000E031A4616217868FDF7BEF80346FB73D4
:1033100097F90F30002B02D04FF0FF3315E0BB7B45
:1033200003F00603DBB2BB73BB7B1A461621786839
:10333000FDF7DEF80346FB7397F90F30002B02D040
:103340006FF0010301E097F90F3018461037BD46C2
:1033500080BD80B584B000AF786039600023FB7316
:103360003A6810217868FDF7F3F80346FB7397F984
:103370000F3018461037BD4680BD80B584B000AF11
:10338000786039600023FB733A6810217868FDF794
:103390002DF90346FB7397F90F3018461037BD46D9
:1033A00080BD80B584B000AF78600B46FB70002311
:1033B000FB730023BB7307F10E031A4616217868CE
:1033C000FDF762F80346FB7397F90F30002B02D02C
:1033D0004FF0FF331EE0BB7B03F00103DBB2BB7396
:1033E000FB785B005AB2BB7B5BB213435BB2DBB2D0
:1033F000BB73BB7B1A4616217868FDF779F8034644
:10340000FB7397F90F30002B02D06FF0010301E03E
:1034100097F90F3018461037BD4680BD80B584B08F
:1034200000AF78600B467B800023FB737B881A46D5
:1034300014217868FDF768F90346FB7397F90F309C
:1034400018461037BD4680BD80B584B000AF7860A7
:103450000023FB730023BB7307F10E031A464FF4DE
:1034600060617868FDF710F80346FB7397F90F3039
:10347000002B02D04FF0FF3316E0BB7B23F0040398
:10348000DBB2BB73BB7B1A464FF460617868FDF713
:103490002FF80346FB7397F90F30002B02D06FF023
:1034A000010301E097F90F3018461037BD4680BD83
:1034B00080B584B000AF786039600023FB730023CF
:1034C000BB603B78C3F30003DAB23B7A62F30003DC
:1034D0003B723B78C3F34003DAB23B7A62F3820378
:1034E0003B723B78C3F38003DAB23B7A62F3041396
:1034F0003B723B78C3F3C103DAB23B7A62F3461303
:103500003B723B78C3F34013DAB23B7A62F3C303F6
:103510003B723B7A1A464FF460617868FCF7E8FF2B
:103520000346FB7397F90F3018461037BD4680BD30
:1035300080B485B000AF78604FF48C63FB603B7B58
:10354000C3F30003D9B27A68137861F300031370F0
:103550003B7BC3F38003D9B27A68137861F34103EC
:1035600013703B7BC3F30013D9B27A68137861F30D
:10357000820313703B7BC3F34113D9B27A6813788B
:1035800061F3C4031370002318461437BD465DF879
:10359000047B704780B586B000AF78603960002347
:1035A000FB7500233B6107F1100301331A4640F617
:1035B00001617868FCF768FF0346FB7597F91730DF
:1035C000002B02D04FF0FF331CE07B7CC3F30003E1
:1035D000DAB23B7B62F300033B737B7CC3F3800373
:1035E000DAB23B7B62F341033B737B7CC3F3001392
:1035F000DAB23B7B62F382033B733B68FA681A6082
:1036000097F9173018461837BD4680BD80B584B08D
:1036100000AF7860084611461A460346FB700B4619
:10362000BB7013467B700023FB737B78012B1AD091
:10363000022B2FD0002B44D1FB781946786800F07C
:1036400049F80346FB7397F90F30002B02D097F926
:103650000F303BE0BA78FB781946786800F0BEF886
:103660000346FB7330E0FB781946786800F0EBFA0C
:103670000346FB7397F90F30002B02D097F90F30F8
:1036800024E0BA78FB781946786800F067FB0346B7
:10369000FB7319E0FB781946786800F007FD0346D4
:1036A000FB7397F90F30002B02D097F90F300DE024
:1036B000BA78FB781946786800F082FD0346FB7300
:1036C00002E0FF23FB7300BF97F90F301846103755
:1036D000BD4680BD80B584B000AF78600B46FB70FE
:1036E0000023FB733C4BBB60FB78112B62D801A21B
:1036F00052F823F03D3700013D3700013D3700010E
:103700003D3700013D3700013D3700013D370001E5
:103710003D3700015B3700015B3700015B3700017B
:103720005B3700015B3700015B3700015B3700014D
:103730007937000179370001973700010023FB72C8
:103740003E23BB727B7A0F2262F306037B723B7AC5
:103750000F2262F306033B722FE00023FB727E23ED
:10376000BB727B7A1F2262F306037B723B7A1F22B5
:1037700062F306033B7220E00023FB721E23BB7240
:103780007B7A072262F306037B723B7A072262F39D
:1037900006033B7211E00023FB72FE23BB727B7AAF
:1037A0003F2262F306037B723B7A3F2262F30603F9
:1037B0003B7202E04FF0FF3309E0BB681A46042178
:1037C0007868FCF713FF0346FB7397F90F30184630
:1037D0001037BD4680BD00BF0F0F3E0080B586B0DC
:1037E00000AF78600B46FB701346BB700023FB757F
:1037F000E14BFB600023BB60BB7A022262F3010352
:10380000BB7200233B61FB78112B00F2F58101A212
:1038100052F823F05D3800019B380001D9380001CF
:10382000173900015539000193390001CD390001E4
:10383000013A0001333A0001793A0001BF3A000130
:10384000FD3A00013B3B00017D3B0001BB3B000119
:1038500017390001CD390001333A00010023FB7311
:10386000BB7B1E2262F30403BB737B7B072262F3E4
:1038700003037B733B7B072262F303033B737B7A77
:103880001F2262F306037B723B6903F03F03DAB247
:103890003B7A62F305033B72B1E10023FB73BB7B10
:1038A0000E2262F30403BB737B7B032262F30303E8
:1038B0007B733B7B032262F303033B737B7A0F2210
:1038C00062F306037B723B6903F03F03DAB23B7A93
:1038D00062F305033B7292E10023FB73BB7B08227A
:1038E00062F30403BB737B7B022262F303037B73EB
:1038F0003B7B022262F303033B737B7A092262F370
:1039000006037B723B6903F03F03DAB23B7A62F352
:1039100005033B7273E10023FB73BB7B062262F35A
:103920000403BB737B7B012262F303037B733B7B4A
:10393000012262F303033B737B7A072262F30603DF
:103940007B723B6903F03F03DAB23B7A62F3050313
:103950003B7254E10023FB73BB7B042262F304033C
:10396000BB737B7B012262F303037B733B7B0122EE
:1039700062F303033B737B7A052262F306037B72D7
:103980003B6903F03F03DAB23B7A62F305033B7213
:1039900035E10023FB73BB7B032262F30403BB739B
:1039A0007B7B6FF303037B733B7B6FF303033B73FF
:1039B0007B7A042262F306037B723B6903F03F03C8
:1039C000DAB23B7A62F305033B7218E10023FB7322
:1039D000BB7B022262F30403BB737B7B6FF30303A5
:1039E0007B733B7B6FF303033B737B7A032262F3AE
:1039F00006037B723B7A012262F305033B72FEE011
:103A00000023FB73BB7B012262F30403BB737B7B4C
:103A10006FF303037B733B7B6FF303033B737B7A8F
:103A2000022262F306037B723B7A6FF305033B725B
:103A3000E5E00123FB73BB7B1E2262F30403BB732F
:103A40007B7B072262F303037B733B7B072262F3DA
:103A500003033B737B7A1F2262F306037B723B698D
:103A600003F03F03DAB23B7A62F305033B72BB7AA1
:103A70006FF30103BB72C2E00123FB73BB7B112216
:103A800062F30403BB737B7B042262F303037B7347
:103A90003B7B042262F303033B737B7A122262F3C3
:103AA00006037B723B6903F03F03DAB23B7A62F3B1
:103AB00005033B72BB7A6FF30103BB729FE00023E7
:103AC000FB73BB7B1E2262F30403BB737B7B072269
:103AD00062F303037B733B7B072262F303033B73B5
:103AE0007B7A1F2262F306037B723B6903F03F037C
:103AF000DAB23B7A62F305033B7280E00023FB738A
:103B0000BB7B122262F30403BB737B7B052262F34F
:103B100003037B733B7B052262F303033B737B7AD6
:103B2000132262F306037B723B6903F03F03DAB2B0
:103B30003B7A62F305033B7261E00023FB73BB7BBE
:103B40000E2262F30403BB737B7B032262F3030345
:103B50007B733B7B032262F303033B737B7A0F226D
:103B600062F306037B723B6903F03F03DAB23B7AF0
:103B700062F305033B7242E003030E000023FB7374
:103B8000BB7B082262F30403BB737B7B022262F3DC
:103B900003037B733B7B022262F303033B737B7A59
:103BA000092262F306037B723B6903F03F03DAB23A
:103BB0003B7A62F305033B7221E00023FB73BB7B7E
:103BC000062262F30403BB737B7B012262F30303CF
:103BD0007B733B7B012262F303033B737B7A0722F7
:103BE00062F306037B723B6903F03F03DAB23B7A70
:103BF00062F305033B7202E04FF0FF331FE0FB6806
:103C00001A4608217868FCF7F1FC0346FB7597F922
:103C10001730002B02D06FF0010310E0BB681A468A
:103C20000C217868FCF7E2FC0346FB7597F9173026
:103C3000002B02D06FF0020301E097F9173018460D
:103C40001837BD4680BD80B584B000AF78600B46A4
:103C5000FB700023FB73404BBB60FB78112B63D8D8
:103C600001A252F823F000BFB13C0001B13C0001B9
:103C7000293D0001B13C0001B13C0001B13C000113
:103C8000B13C0001B13C0001CF3C0001CF3C000140
:103C9000CF3C0001CF3C0001CF3C0001CF3C0001F4
:103CA000CF3C0001ED3C0001ED3C00010B3D00016B
:103CB0000023FB721E23BB727B7A072262F306038A
:103CC0007B723B7A072262F306033B722FE00023EC
:103CD000FB723E23BB727B7A0F2262F306037B7278
:103CE0003B7A0F2262F306033B7220E00023FB7253
:103CF0000E23BB727B7A032262F306037B723B7A4C
:103D0000032262F306033B7211E00023FB727E2361
:103D1000BB727B7A1F2262F306037B723B7A1F22FF
:103D200062F306033B7202E04FF0FF3310E0BB6822
:103D30001A4604217868FCF759FC0346FB7397F98F
:103D40000F30002B02D06FF0010301E097F90F3024
:103D500018461037BD4680BD0F0F3E0080B586B0B7
:103D600000AF78600B46FB701346BB700023FB75F9
:103D7000CD4BFB600023BB60BB7A022262F30103E0
:103D8000BB7200233B61FB78112B00F2658101A21D
:103D900052F823F0DD3D00011B3E000159400001B7
:103DA000593E0001933E0001CD3E0001CD3E000191
:103DB000CD3E0001D33E0001193F00015F3F0001ED
:103DC0009D3F0001DB3F0001194000011F40000141
:103DD000593E0001CD3E0001D33E00010023FB739C
:103DE000BB7B0E2262F30403BB737B7B032262F373
:103DF00003037B733B7B032262F303033B737B7AF6
:103E00000F2262F306037B723B6903F03F03DAB2D1
:103E10003B7A62F305033B7221E10023FB73BB7B1A
:103E2000062262F30403BB737B7B012262F303036C
:103E30007B733B7B012262F303033B737B7A072294
:103E400062F306037B723B6903F03F03DAB23B7A0D
:103E500062F305033B7202E10023FB73BB7B02228A
:103E600062F30403BB737B7B6FF303037B733B7BC6
:103E70006FF303033B737B7A032262F306037B72C7
:103E80003B6903F03F03DAB23B7A62F305033B720E
:103E9000E5E00023FB73BB7B012262F30403BB73E9
:103EA0007B7B6FF303037B733B7B6FF303033B73FA
:103EB0007B7A022262F306037B723B6903F03F03C5
:103EC000DAB23B7A62F305033B72C8E04FF0FF338E
:103ED000E5E00023FB73BB7B1E2262F30403BB738C
:103EE0007B7B072262F303037B733B7B072262F336
:103EF00003033B737B7A1F2262F306037B723B69E9
:103F000003F03F03DAB23B7A62F305033B72BB7AFC
:103F10006FF30103BB72A2E00023FB73BB7B112292
:103F200062F30403BB737B7B042262F303037B73A2
:103F30003B7B042262F303033B737B7A122262F31E
:103F400006037B723B6903F03F03DAB23B7A62F30C
:103F500005033B72BB7A6FF30103BB727FE0002362
:103F6000FB73BB7B0E2262F30403BB737B7B0322D8
:103F700062F303037B733B7B032262F303033B7314
:103F80007B7A0F2262F306037B723B6903F03F03E7
:103F9000DAB23B7A62F305033B7260E00023FB7305
:103FA000BB7B082262F30403BB737B7B022262F3B8
:103FB00003037B733B7B022262F303033B737B7A35
:103FC000092262F306037B723B6903F03F03DAB216
:103FD0003B7A62F305033B7241E00023FB73BB7B3A
:103FE000062262F30403BB737B7B012262F30303AB
:103FF0007B733B7B012262F303033B737B7A0722D3
:1040000062F306037B723B6903F03F03DAB23B7A4B
:1040100062F305033B7222E04FF0FF333FE00023E1
:10402000FB73BB7B022262F30403BB737B7B6FF3E6
:1040300003037B733B7B6FF303033B737B7A0322A6
:1040400062F306037B723B6903F03F03DAB23B7A0B
:1040500062F305033B7202E04FF0FF331FE0FB68A1
:104060001A4608217868FCF7C1FA0346FB7597F9F0
:104070001730002B02D06FF0010310E0BB681A4626
:104080000C217868FCF7B2FA0346FB7597F91730F4
:10409000002B02D06FF0020301E097F917301846A9
:1040A0001837BD4680BD00BF03030E0080B584B045
:1040B00000AF78600B46FB700023FB733F4BBB6087
:1040C000FB78112B62D801A252F823F015410001B0
:1040D000154100018D41000115410001154100010C
:1040E0001541000115410001154100013341000156
:1040F00033410001334100013341000133410001EC
:10410000334100013341000151410001514100019F
:104110006F4100010023FB720E23BB727B7A0322E6
:1041200062F306037B723B7A032262F306033B725F
:104130002FE00023FB721E23BB727B7A072262F3FF
:1041400006037B723B7A072262F306033B7220E090
:104150000023FB720723BB727B7A022262F3060301
:104160007B723B7A022262F306033B7211E000236A
:10417000FB723E23BB727B7A0F2262F306037B72D3
:104180003B7A0F2262F306033B7202E04FF0FF33EB
:1041900010E0BB681A4604217868FCF727FA03464A
:1041A000FB7397F90F30002B02D06FF0010301E091
:1041B00097F90F3018461037BD4680BD0F0F3E00EF
:1041C00080B586B000AF78600B46FB701346BB70BD
:1041D0000023FB75914BFB600023BB60BB7A02227E
:1041E00062F30103BB7200233B61FB78112B00F2E9
:1041F000EE8001A252F823F0414200017F4200010B
:10420000CF430001B9420001B9420001B9420001A7
:10421000B9420001B9420001BF420001054300015B
:104220004B430001894300018F430001C943000152
:10423000C9430001B9420001B9420001BF42000177
:104240000023FB73BB7B062262F30403BB737B7BFF
:10425000012262F303037B733B7B012262F30303BE
:104260003B737B7A072262F306037B723B6903F0A0
:104270003F03DAB23B7A62F305033B72AAE0002304
:10428000FB73BB7B022262F30403BB737B7B6FF384
:1042900003037B733B7B6FF303033B737B7A032244
:1042A00062F306037B723B6903F03F03DAB23B7AA9
:1042B00062F305033B728DE04FF0FF33AAE0002369
:1042C000FB73BB7B0E2262F30403BB737B7B032275
:1042D00062F303037B733B7B032262F303033B73B1
:1042E0007B7A0F2262F306037B723B6903F03F0384
:1042F000DAB23B7A62F305033B72BB7A6FF30103D8
:10430000BB7267E00023FB73BB7B072262F30403ED
:10431000BB737B7B022262F303037B733B7B022232
:1043200062F303033B737B7A082262F306037B721A
:104330003B6903F03F03DAB23B7A62F305033B7259
:10434000BB7A6FF30103BB7244E00023FB73BB7BBA
:10435000062262F30403BB737B7B012262F3030337
:104360007B733B7B012262F303033B737B7A07225F
:1043700062F306037B723B6903F03F03DAB23B7AD8
:1043800062F305033B7225E04FF0FF3342E0002368
:10439000FB73BB7B022262F30403BB737B7B6FF373
:1043A00003037B733B7B6FF303033B737B7A032233
:1043B00062F306037B723B6903F03F03DAB23B7A98
:1043C00062F305033B7205E04FF0FF3322E04FF04C
:1043D000FF331FE0FB681A4608217868FCF706F9EE
:1043E0000346FB7597F91730002B02D06FF00103DD
:1043F00010E0BB681A460C217868FCF7F7F8034612
:10440000FB7597F91730002B02D06FF0020301E023
:1044100097F9173018461837BD4680BD03030E00C4
:1044200080B584B000AF78600B46FB701346BB705C
:104430000023FB730023BB8140F60763BB8100238D
:10444000BB6007F10803DA1CBB8919467868FCF7E2
:104450001BF80346FB7397F90F30002B02D04FF087
:10446000FF3320E0FB7803F00103DAB2FB7A62F35A
:104470000003FB72BB7803F00103DAB2FB7A62F34C
:104480004103FB72FA7ABB8919467868FCF730F869
:104490000346FB7397F90F30002B02D06FF0010336
:1044A00001E097F90F3018461037BD4680BD80B542
:1044B00084B000AF78600B46FB701346BB700023DE
:1044C000FB730023BB8140F60463BB810023BB6008
:1044D00007F10802BB8919467868FBF7D5FF034648
:1044E000FB7397F90F30002B02D04FF0FF3320E021
:1044F000FB7803F00103DAB23B7A62F300033B720C
:10450000BB7803F00103DAB23B7A62F341033B72FA
:104510003A7ABB8919467868FBF7EAFF0346FB73D2
:1045200097F90F30002B02D06FF0010301E097F9EB
:104530000F3018461037BD4680BD80B584B000AF3F
:1045400078600023FB730023BB8140F60463BB81CA
:104550000023BB6007F10802BB8919467868FBF7A6
:1045600093FF0346FB7397F90F30002B02D04FF0F7
:10457000FF3314E03B7A43F040033B723A7ABB8945
:1045800019467868FBF7B4FF0346FB7397F90F30C1
:10459000002B02D06FF0010301E097F90F301846AD
:1045A0001037BD4680BD80B584B000AF7860002371
:1045B000FB730023BB8140F60463BB810023BB6017
:1045C00007F10802BB8919467868FBF75DFF0346CF
:1045D000FB7397F90F30002B02D04FF0FF3314E03C
:1045E0003B7A6FF386133B723A7ABB891946786837
:1045F000FBF77EFF0346FB7397F90F30002B02D0C9
:104600006FF0010301E097F90F3018461037BD46EF
:1046100080BD80B584B000AF78600B46FB7000238E
:10462000FB730023BB8140F60763BB810023BB60A3
:1046300007F10803DA1CBB8919467868FBF724FFE9
:104640000346FB7397F90F30002B02D04FF0FF3376
:1046500018E0FB7803F00103DAB2FB7A62F3861309
:10466000FB72FA7ABB8919467868FBF741FF03466B
:10467000FB7397F90F30002B02D06FF0010301E0BC
:1046800097F90F3018461037BD4680BD80B584B00D
:1046900000AF78600B46FB700023FB730023BB81E7
:1046A00040F60763BB810023BB6007F10803DA1CF7
:1046B000BB8919467868FBF7E7FE0346FB7397F959
:1046C0000F30002B02D04FF0FF3318E0FB7803F0DF
:1046D0000103DAB2FB7A62F30413FB72FA7ABB8944
:1046E00019467868FBF704FF0346FB7397F90F3010
:1046F000002B02D06FF0010301E097F90F3018464C
:104700001037BD4680BD80B584B000AF78600B46E1
:10471000FB701346BB700023FB730023BB8140F684
:104720000563BB810023BB6007F108035A1CBB89EA
:1047300019467868FBF7A8FE0346FB7397F90F301C
:10474000002B02D04FF0FF332BE0FB78002B02D080
:10475000012B09D011E0BB7803F00103DAB27B7AB8
:1047600062F300037B720BE0BB7803F00103DAB263
:104770007B7A62F341037B7202E04FF0FF3310E07B
:104780007A7ABB8919467868FBF7B2FE0346FB7359
:1047900097F90F30002B02D06FF0010301E097F979
:1047A0000F3018461037BD4680BD80B586B000AFCB
:1047B000F8600B467A60FB720023FB750023BB8216
:1047C00040F60663BB8200233B6107F110039A1C8D
:1047D000BB8A1946F868FBF757FE0346FB7597F945
:1047E0001730002B02D04FF0FF331AE0FB7A002B7A
:1047F00002D0012B08D00FE0BB7CC3F30003DBB277
:104800001A467B681A700AE0BB7CC3F34003DBB234
:104810001A467B681A7002E04FF0FF3301E097F907
:10482000173018461837BD4680BD80B584B000AF3C
:1048300078600B46FB700023FB730023BB8140F6BE
:104840000763BB810023BB6007F10803DA1CBB8947
:1048500019467868FBF718FE0346FB7397F90F308B
:10486000002B02D04FF0FF3318E0FB7803F0010378
:10487000DAB2FB7A62F34513FB72FA7ABB89194606
:104880007868FBF735FE0346FB7397F90F30002B72
:1048900002D06FF0010301E097F90F30184610378E
:1048A000BD4680BD80B485B000AF0346FB710023D8
:1048B000FB6000BF00BFFB79082B02D8FB79FB60CF
:1048C0002AE0FB79093B062B25D801A252F823F0F8
:1048D000ED480001F3480001F9480001FF480001DC
:1048E000054900010B490001114900010C23FB603F
:1048F00012E01023FB600FE01423FB600CE0182390
:10490000FB6009E02023FB6006E03023FB6003E04E
:104910004023FB6000E000BFFB6818461437BD462B
:104920005DF8047B704780B586B000AFF8600B4639
:104930007A60FB720023FB750023BB820023FB74AB
:10494000FB7A9BB21A46520013449B009BB254332D
:10495000BB82BB8A0133BB8207F11302BB8A1946B3
:10496000F868FBF791FD0346FB7597F91730002BAC
:1049700002D04FF0FF3307E0FB7C03F01F03DAB2F5
:104980007B681A7097F9173018461837BD4680BDF6
:1049900080B485B000AF78600B467B804FF6FF7324
:1049A000BB8115E007F10C0301331A787B68591CB1
:1049B00079601B785340FB73BB891B021AB2FB7BE7
:1049C000094931F813301BB253401BB29BB2BB8173
:1049D0007B885A1E7A80002BE4D1BB891846143795
:1049E000BD465DF8047B7047482E010180B485B058
:1049F00000AF0346FB710023FB73FB79042B02D845
:104A00000423FB732EE0FB79082B02D80823FB73E9
:104A100028E0FB790C2B02D80923FB7322E0FB79F9
:104A2000102B02D80A23FB731CE0FB79142B02D84D
:104A30000B23FB7316E0FB79182B02D80C23FB73B6
:104A400010E0FB79202B02D80D23FB730AE0FB79E1
:104A5000302B02D80E23FB7304E0FB79402B01D8E6
:104A60000F23FB73FB7B18461437BD465DF8047BB0
:104A7000704700BF80B58AB004AFF860B9607A6053
:104A80003B607B689B0018460BF0B8FB38613B69C4
:104A9000002B13D054200BF0B1FB78617B69002B05
:104AA00008D05422002178692EF020FF7B693A69F2
:104AB0001A6305E038690BF053FC01E000237B61C9
:104AC0007B69002B0DD0002303937B6902937B6AE3
:104AD00001933B6A00933B687A68B968F86800F014
:104AE00028F87B6918461837BD4680BD80B588B068
:104AF00002AFF860B9607A603B607B6A01933B6A01
:104B000000933B687A68B968F868FFF7B3FF3861CB
:104B10003B69002B05D0386900F07BF801237B61ED
:104B200002E04FF0FF337B617B6918461837BD46C2
:104B300080BD80B586B000AFF860B9607A603B6038
:104B4000BB6A186B7B689B001A46A5212EF0CEFE2F
:104B5000BB6A1A6B7B6803F18043013B9B001344E3
:104B60003B613B6923F007033B61BB68002B1ED010
:104B700000237B6112E0BA687B6913441978BA6A32
:104B80007B69134434330A461A70BA687B6913444C
:104B90001B78002B06D07B6901337B617B690F2B6F
:104BA000E9D900E000BFBB6A002283F843203B6ADA
:104BB000042B01D904233B62BB6A3A6ADA62BB6AFE
:104BC0003A6A5A64BB6A0433184615F095FBBB6A0F
:104BD0001833184615F090FBBB6ABA6A1A613B6A33
:104BE000C3F10502BB6A9A61BB6ABA6A5A623A6843
:104BF000F96838690CF094FC0246BB6A1A607B6A5B
:104C0000002B02D07B6ABA6A1A6000BF1837BD4613
:104C100080BD80B584B000AF78600CF036FD404BAD
:104C20001B6801333E4A13603E4B1B68002B09D1C1
:104C30003C4A7B6813603A4B1B68012B10D101F092
:104C4000B9FB0DE0384B1B68002B09D1354B1B68B5
:104C5000DA6A7B68DB6A9A4202D8324A7B68136060
:104C6000324B1B680133314A13607B68DB6A0122D7
:104C70009A402F4B1B6813432D4A13607B68DA6AF6
:104C80002C4913469B0013449B000B4404331B68C0
:104C9000FB607B68FA689A60FB689A687B68DA60F8
:104CA000FB689B687A6804325A607B681A1DFB684F
:104CB0009A607B68DA6A13469B0013449B001D4A86
:104CC0001A447B685A617B68DA6A1A4913469B006A
:104CD00013449B000B441B687A68D26A591C154820
:104CE00013469B0013449B00034419600CF0E6FC40
:104CF0000D4B1B68002B0ED00A4B1B68DA6A7B68D1
:104D0000DB6A9A4207D20C4B4FF080521A60BFF315
:104D10004F8FBFF36F8F00BF1037BD4680BD00BF00
:104D2000A4AD0020CCAC0020B0AD0020C0AD002070
:104D3000ACAD0020D0AC002004ED00E080B586B022
:104D400000AF786000237B610CF09FFC7B68002B38
:104D500002D1394B1B6800E07B683B613B6904333F
:104D6000184615F033FB0346002B15D13B69DA6A70
:104D7000324913469B0013449B000B441B68002BD5
:104D80000AD13B69DB6A012202FA03F3DA432C4BB6
:104D90001B6813402A4A13603B699B6A002B04D0AE
:104DA0003B691833184615F011FB264B1B6801337D
:104DB000244A1360204B1B683A699A4201D10123AF
:104DC00000E00023FB60204B1B68002B10D0FB6829
:104DD000002B0DD03B69043319461C4815F099FA95
:104DE0001B4B1B6801331A4A136001237B6106E0E9
:104DF000184B1B68013B174A136001F057FB0CF07E
:104E00005DFC7B69012B02D0386901F03FFB0E4B42
:104E10001B68002B0CD0084B1B683A699A4207D1DB
:104E20000D4B4FF080521A60BFF34F8FBFF36F8F5F
:104E300000BF1837BD4680BDCCAC0020D0AC0020F0
:104E4000ACAD0020C0AD0020B0AD002078AD00209A
:104E50008CAD0020A4AD002004ED00E080B586B04C
:104E600000AF7860396000237B6100F023FC224BA7
:104E70001B683B617B681B683A681344FB607B6876
:104E80001B683A699A420BD27B681B68FA689A429F
:104E900011D2FA683B699A420DD901237B610AE07D
:104EA0007B681B68FA689A4203D3FA683B699A42A6
:104EB00001D901237B617B68FA681A607B69002B4A
:104EC00006D0FA683B69D31A0021184602F062F94D
:104ED00000F03AFCB860BB68002B07D1074B4FF0DD
:104EE00080521A60BFF34F8FBFF36F8F7B691846F4
:104EF0001837BD4680BD00BFA8AD002004ED00E01E
:104F000080B584B000AF78600023FB607B68002B25
:104F100008D000F0CFFB0021786802F03BF900F0E8
:104F200013FCF860FB68002B07D1064B4FF0805252
:104F30001A60BFF34F8FBFF36F8F00BF1037BD46AE
:104F400080BD00BF04ED00E080B58AB000AF78609E
:104F50007B68FB61324B1B68FA699A4203D10023DC
:104F600087F8273056E00CF090FBFB695B69BB616A
:104F7000FB699B6A7B612B4B1B683B612A4B1B685F
:104F8000FB600CF09BFB7B69284A934203D1012311
:104F900087F827303EE0BA693B699A4203D0BA6984
:104FA000FB689A4203D1022387F8273032E0BB69BD
:104FB0001F4A934220D1FB699B6A002B18D103231F
:104FC00087F8273000233B620EE0FA693B6A1344FE
:104FD00050331B78DBB2012B03D1022387F8273033
:104FE00018E03B6A01333B623B6A002BEDDD11E0C8
:104FF000022387F827300DE0BB690E4A934202D0A6
:10500000BB69002B03D1042387F8273002E001237A
:1050100087F8273097F8273018462837BD4680BDD7
:10502000CCAC00205CAD002060AD002064AD002061
:1050300090AD002078AD002080B584B000AF7860DE
:105040000CF023FB7B68002B02D1074B1B6800E0B0
:105050007B68FB60FB68DB6ABB600CF02FFBBB6806
:1050600018461037BD4680BDCCAC002080B489B056
:1050700000AF7860EFF311824FF0200383F31188C3
:10508000BFF36F8FBFF34F8F3A61FB603B69FB61EA
:105090007B68002B02D10A4B1B6800E07B68BB6178
:1050A000BB69DB6A7B61FB69BB60BB6883F311880A
:1050B0007B6918462437BD465DF8047B704700BF06
:1050C000CCAC002080B584B000AF78600CF0DDFA85
:1050D0007B68002B02D1074B1B6800E07B68FB60FC
:1050E000FB685B6CBB600CF0E9FABB6818461037D4
:1050F000BD4680BDCCAC002080B489B000AF7860E4
:10510000EFF311824FF0200383F31188BFF36F8F09
:10511000BFF34F8F3A61FB603B69FB617B68002BFB
:1051200002D10A4B1B6800E07B68BB61BB695B6C0A
:105130007B61FB69BB60BB6883F311887B691846A0
:105140002437BD465DF8047B704700BFCCAC00201F
:1051500080B588B000AF786039600023FB613B68A0
:10516000042B01D904233B600CF08FFA7B68002BE1
:1051700002D1594B1B6800E07B68BB61BB695B6C6B
:105180007B617A693B689A4200F09F803A687B694C
:105190009A420DD9504B1B68BA699A420FD04E4BB8
:1051A0001B68DB6A3A689A4209D90123FB6106E071
:1051B000494B1B68BA699A4201D10123FB61BB6963
:1051C000DB6A3B61BB695A6CBB69DB6A9A4204D0FB
:1051D000BB69DB6A3A689A4202D9BB693A68DA620B
:1051E000BB693A685A64BB699B69002B04DB3B6866
:1051F000C3F10502BB699A61BB6959693A691346F3
:105200009B0013449B00354A1344994252D1BB6919
:105210000433184615F0DAF80346002B09D10122B1
:105220003B6902FA03F3DA432D4B1B6813402C4A07
:105230001360BB69DB6A01229A40294B1B68134348
:10524000274A1360BB69DA6A244913469B0013445A
:105250009B000B4404331B68FB60BB69FA689A60CF
:10526000FB689A68BB69DA60FB689B68BA690432BC
:105270005A60BB691A1DFB689A60BB69DA6A1346FB
:105280009B0013449B00154A1A44BB695A61BB69D1
:10529000DA6A124913469B0013449B000B441B68B7
:1052A000BA69D26A591C0D4813469B0013449B00EF
:1052B00003441960FB69002B07D00A4B4FF0805262
:1052C0001A60BFF34F8FBFF36F8F0CF0F7F900BF79
:1052D0002037BD4680BD00BFCCAC0020D0AC002044
:1052E000ACAD002004ED00E080B586B000AF786082
:1052F0000CF0CBF97B68002B02D13C4B1B6800E023
:105300007B683B613B690433184615F05FF8034640
:10531000002B15D13B69DA6A354913469B001344CB
:105320009B000B441B68002B0AD13B69DB6A0122FE
:1053300002FA03F3DA432F4B1B6813402D4A136024
:105340003B699B6A002B04D03B691833184615F063
:105350003DF83B6904331946274814F0DAFF00236F
:105360007B6110E03A697B69134450331B78DBB2F0
:10537000012B05D13A697B691344503300221A701E
:105380007B6901337B617B69002BEBDD0CF096F9C7
:105390001A4B1B68002B05D00CF077F901F086F84A
:1053A0000CF08CF9114B1B683A699A421AD1134BD5
:1053B0001B68002B08D0124B4FF080521A60BFF3CD
:1053C0004F8FBFF36F8F0DE00B4B1B68FB600D4BD6
:1053D0001B68FA689A4203D1044B00221A6001E06C
:1053E00000F0C6FC00BF1837BD4680BDCCAC002025
:1053F000D0AC0020ACAD002090AD0020B0AD0020BE
:1054000004ED00E0A4AD002080B487B000AF786068
:1054100000237B617B68FB60FB685B69144A9342F5
:105420001ED1FB689B6A134A934219D0FB689B6AA2
:10543000002B15D101237B6100233B610DE0FA684D
:105440003B69134450331B78DBB2012B02D100239C
:105450007B6105E03B6901333B613B69002BEEDD7D
:105460007B6918461C37BD465DF8047B704700BF5A
:1054700090AD002064AD002080B584B000AF7860AE
:105480007B68FB60354B1B68FA689A4261D0FB6809
:10549000002B5ED00CF0F9F8F868FFF7B5FF034673
:1054A000002B54D0FB680433184614F08FFFFB68C0
:1054B000DB6A01229A402A4B1B681343284A136077
:1054C000FB68DA6A274913469B0013449B000B4490
:1054D00004331B68BB60FB68BA689A60BB689A6853
:1054E000FB68DA60BB689B68FA6804325A60FB6844
:1054F0001A1DBB689A60FB68DA6A13469B00134466
:105500009B00184A1A44FB685A61FB68DA6A15491D
:1055100013469B0013449B000B441B68FA68D26A35
:10552000591C104813469B0013449B000344196008
:105530000A4B1B68DA6AFB68DB6A9A4207D20A4B9D
:105540004FF080521A60BFF34F8FBFF36F8F0CF094
:10555000B5F800BF1037BD4680BD00BFCCAC002001
:10556000ACAD0020D0AC002004ED00E080B58AB0E6
:1055700002AF0123FB6100233B6100237B6111E04B
:105580001D4A7B69134419783A467B6913440A46DD
:105590001A703A467B6913441B78002B06D07B694E
:1055A00001337B617B690F2BEADD00E000BF002344
:1055B000BB6116E0114B3B61BB699B00104A134471
:1055C000394601930023009300234FF48072386919
:1055D000FFF78CFAF861FB69002B06D0BB69013339
:1055E000BB61BB69002BE5DD00E000BFFB6918462D
:1055F0002037BD4680BD00BF18150101ED620001D6
:10560000C8AD002080B582B000AFFFF7AFFF786073
:105610007B68012B14D14FF0200383F31188BFF373
:105620006F8FBFF34F8F3B60084B4FF0FF321A6014
:10563000074B01221A60074B00221A600BF0E7FFAC
:10564000054B1B6800BF0837BD4680BDC4AD0020B8
:10565000B0AD0020A8AD002048B9002080B582B0D0
:1056600000AF00237B6009E0104A7B6852F82330CA
:105670001846FFF763FB7B6801337B607B68002B78
:10568000F2DD00F0D7FE4FF0200383F31188BFF363
:105690006F8FBFF34F8F3B60054B00221A600BF0FA
:1056A000EDFF00BF0837BD4680BD00BFC8AD00207C
:1056B000B0AD002080B400AF044B1B680133034A37
:1056C000136000BFBD465DF8047B7047CCAD002081
:1056D00080B485B000AF0023BB6001237B60154B15
:1056E0001B687A689A4201D20123BB60124B1B6887
:1056F000DB6A002B02D00023FB6014E00F4B1B6819
:10570000012B02D90023FB600DE0BB68002B02D007
:105710000023FB6007E00A4B1B68FB60094B1B681A
:10572000FA68D31AFB60FB6818461437BD465DF86B
:10573000047B7047ACAD0020CCAC0020D0AC002086
:10574000C4AD0020A8AD002080B588B000AF002314
:10575000FB610023BB610BF098FF00233B616D4BA5
:105760001B68013B6B4A13606A4B1B68002B40F0BF
:10577000CA80694B1B68002B00F0C5808EE0674B28
:10578000DB68DB68FB61FB699B6AFB60FB69DB69CB
:10579000FA69126A9A60FB691B6AFA69D2695A60EF
:1057A000FB685A68FB6918339A4203D1FB691A6A8D
:1057B000FB685A60FB6900229A62FB681B685A1EEC
:1057C000FB681A60FB695B69BB60FB699B68FA69EF
:1057D000D2689A60FB69DB68FA6992685A60BB68B4
:1057E0005A68FB6904339A4203D1FB69DA68BB68E3
:1057F0005A60FB6900225A61BB681B685A1EBB686D
:105800001A60FB69DB6A01229A40454B1B6813430F
:10581000434A1360FB69DA6A424913469B0013440A
:105820009B000B4404331B687B60FB697A689A60B9
:105830007B689A68FB69DA607B689B68FA69043266
:105840005A60FB691A1D7B689A60FB69DA6A134625
:105850009B0013449B00334A1A44FB695A61FB695D
:10586000DA6A304913469B0013449B000B441B68C3
:10587000FA69D26A591C2B4813469B0013449B00BB
:1058800003441960FB69DA6A274B1B68DB6A9A429A
:1058900004D9264A3B69012142F823101F4B1B689B
:1058A000002B7FF46CAFFB69002B01D000F0FEFDF4
:1058B0001F4B1B687B617B69002B12D000F048F9FD
:1058C0000346002B04D0194A3B69012142F82310FA
:1058D0007B69013B7B617B69002BEFD1144B00227C
:1058E0001A60124A3B6952F82330002B0BD0012377
:1058F000BB610D4B1B680F4B4FF080521A60BFF31A
:105900004F8FBFF36F8F0BF0D9FEBB69184620375E
:10591000BD4680BDCCAD0020A4AD002064AD00200C
:10592000ACAD0020D0AC0020CCAC0020B8AD002045
:10593000B4AD002004ED00E080B483B000AF054BAF
:105940001B687B607B6818460C37BD465DF8047B9E
:10595000704700BFA8AD002080B483B000AF002323
:105960007B60054B1B683B603B6818460C37BD46A7
:105970005DF8047B704700BFA8AD002080B400AF85
:10598000034B1B681846BD465DF8047B704700BF9B
:10599000A4AD002080B485B000AF78607B68002B98
:1059A00002D1064B1B6800E07B68FB60FB68343368
:1059B00018461437BD465DF8047B7047CCAC002018
:1059C00080B584B000AF78600F4B1B687A681344D1
:1059D000FB600E4B1B68FA689A420BD10BF055FE28
:1059E0000B4B1B6801330A4A13600BF067FE7B68A0
:1059F000013B7B60044B1A687B681344024A1360C6
:105A000000BF1037BD4680BDA8AD0020C4AD00204A
:105A1000B4AD002080B584B000AF7860FFF74AFED7
:105A20000BF033FE074B1A687B681344054A13607A
:105A30000BF044FEFFF788FEF860FB68184610374D
:105A4000BD4680BDB4AD002080B586B000AF7860A3
:105A50007B683B61FFF72EFE7868FFF775FA034617
:105A6000022B63D101237B613B690433184614F098
:105A7000ADFC0BF00AFE3B699B6A002B08D03B692A
:105A80001833184614F0A2FC3B69012283F8512018
:105A90000BF014FE3B69DB6A01229A40284B1B681D
:105AA0001343274A13603B69DA6A264913469B0071
